{
  "address": "0xD08d82e1b4b1a6E8a74109b72c69bBb4CF95F6eA",
  "abi": [
    {
      "inputs": [
        {
          "internalType": "address",
          "name": "_router",
          "type": "address"
        },
        {
          "internalType": "address",
          "name": "_link",
          "type": "address"
        },
        {
          "internalType": "address",
          "name": "nftAddress",
          "type": "address"
        }
      ],
      "stateMutability": "nonpayable",
      "type": "constructor"
    },
    {
      "inputs": [
        {
          "internalType": "uint64",
          "name": "chainSelector",
          "type": "uint64"
        }
      ],
      "name": "InvalidChainSelector",
      "type": "error"
    },
    {
      "inputs": [
        {
          "internalType": "address",
          "name": "receiver",
          "type": "address"
        }
      ],
      "name": "InvalidReceiverAddress",
      "type": "error"
    },
    {
      "inputs": [
        {
          "internalType": "address",
          "name": "router",
          "type": "address"
        }
      ],
      "name": "InvalidRouter",
      "type": "error"
    },
    {
      "inputs": [
        {
          "internalType": "uint256",
          "name": "tokenId",
          "type": "uint256"
        },
        {
          "internalType": "address",
          "name": "from",
          "type": "address"
        },
        {
          "internalType": "address",
          "name": "to",
          "type": "address"
        }
      ],
      "name": "NFTTransferFailed",
      "type": "error"
    },
    {
      "inputs": [
        {
          "internalType": "uint256",
          "name": "currentBalance",
          "type": "uint256"
        },
        {
          "internalType": "uint256",
          "name": "calculatedFees",
          "type": "uint256"
        }
      ],
      "name": "NotEnoughBalance",
      "type": "error"
    },
    {
      "anonymous": false,
      "inputs": [
        {
          "indexed": false,
          "internalType": "uint256",
          "name": "currentBalance",
          "type": "uint256"
        },
        {
          "indexed": false,
          "internalType": "uint256",
          "name": "requiredFees",
          "type": "uint256"
        }
      ],
      "name": "BalanceChecked",
      "type": "event"
    },
    {
      "anonymous": false,
      "inputs": [
        {
          "indexed": false,
          "internalType": "uint256",
          "name": "fees",
          "type": "uint256"
        }
      ],
      "name": "FeeEstimated",
      "type": "event"
    },
    {
      "anonymous": false,
      "inputs": [
        {
          "indexed": false,
          "internalType": "uint256",
          "name": "fees",
          "type": "uint256"
        }
      ],
      "name": "FeePaid",
      "type": "event"
    },
    {
      "anonymous": false,
      "inputs": [
        {
          "indexed": false,
          "internalType": "address",
          "name": "depositor",
          "type": "address"
        },
        {
          "indexed": false,
          "internalType": "uint256",
          "name": "amount",
          "type": "uint256"
        }
      ],
      "name": "LinkDeposited",
      "type": "event"
    },
    {
      "anonymous": false,
      "inputs": [
        {
          "indexed": false,
          "internalType": "uint256",
          "name": "amount",
          "type": "uint256"
        }
      ],
      "name": "LinkWithdrawn",
      "type": "event"
    },
    {
      "anonymous": false,
      "inputs": [
        {
          "indexed": false,
          "internalType": "uint256",
          "name": "tokenId",
          "type": "uint256"
        },
        {
          "indexed": false,
          "internalType": "string",
          "name": "reason",
          "type": "string"
        }
      ],
      "name": "LockFailed",
      "type": "event"
    },
    {
      "anonymous": false,
      "inputs": [
        {
          "indexed": false,
          "internalType": "uint256",
          "name": "tokenId",
          "type": "uint256"
        },
        {
          "indexed": false,
          "internalType": "address",
          "name": "sender",
          "type": "address"
        },
        {
          "indexed": false,
          "internalType": "uint64",
          "name": "chainSelector",
          "type": "uint64"
        },
        {
          "indexed": false,
          "internalType": "address",
          "name": "receiver",
          "type": "address"
        }
      ],
      "name": "LockInitiated",
      "type": "event"
    },
    {
      "anonymous": false,
      "inputs": [
        {
          "indexed": true,
          "internalType": "bytes32",
          "name": "messageId",
          "type": "bytes32"
        },
        {
          "indexed": true,
          "internalType": "uint64",
          "name": "destinationChainSelector",
          "type": "uint64"
        },
        {
          "indexed": false,
          "internalType": "address",
          "name": "receiver",
          "type": "address"
        },
        {
          "indexed": false,
          "internalType": "bytes",
          "name": "text",
          "type": "bytes"
        },
        {
          "indexed": false,
          "internalType": "address",
          "name": "feeToken",
          "type": "address"
        },
        {
          "indexed": false,
          "internalType": "uint256",
          "name": "fees",
          "type": "uint256"
        }
      ],
      "name": "MessageSent",
      "type": "event"
    },
    {
      "anonymous": false,
      "inputs": [
        {
          "indexed": false,
          "internalType": "uint256",
          "name": "tokenId",
          "type": "uint256"
        },
        {
          "indexed": false,
          "internalType": "address",
          "name": "sender",
          "type": "address"
        }
      ],
      "name": "NFTAlreadyLocked",
      "type": "event"
    },
    {
      "anonymous": false,
      "inputs": [
        {
          "indexed": false,
          "internalType": "uint256",
          "name": "tokenId",
          "type": "uint256"
        },
        {
          "indexed": false,
          "internalType": "address",
          "name": "from",
          "type": "address"
        },
        {
          "indexed": false,
          "internalType": "address",
          "name": "to",
          "type": "address"
        }
      ],
      "name": "NFTTransferred",
      "type": "event"
    },
    {
      "anonymous": false,
      "inputs": [
        {
          "indexed": true,
          "internalType": "address",
          "name": "from",
          "type": "address"
        },
        {
          "indexed": true,
          "internalType": "address",
          "name": "to",
          "type": "address"
        }
      ],
      "name": "OwnershipTransferRequested",
      "type": "event"
    },
    {
      "anonymous": false,
      "inputs": [
        {
          "indexed": true,
          "internalType": "address",
          "name": "from",
          "type": "address"
        },
        {
          "indexed": true,
          "internalType": "address",
          "name": "to",
          "type": "address"
        }
      ],
      "name": "OwnershipTransferred",
      "type": "event"
    },
    {
      "anonymous": false,
      "inputs": [
        {
          "indexed": false,
          "internalType": "uint256",
          "name": "tokenId",
          "type": "uint256"
        },
        {
          "indexed": false,
          "internalType": "address",
          "name": "newOwner",
          "type": "address"
        }
      ],
      "name": "TokenUnlocked",
      "type": "event"
    },
    {
      "inputs": [],
      "name": "acceptOwnership",
      "outputs": [],
      "stateMutability": "nonpayable",
      "type": "function"
    },
    {
      "inputs": [
        {
          "components": [
            {
              "internalType": "bytes32",
              "name": "messageId",
              "type": "bytes32"
            },
            {
              "internalType": "uint64",
              "name": "sourceChainSelector",
              "type": "uint64"
            },
            {
              "internalType": "bytes",
              "name": "sender",
              "type": "bytes"
            },
            {
              "internalType": "bytes",
              "name": "data",
              "type": "bytes"
            },
            {
              "components": [
                {
                  "internalType": "address",
                  "name": "token",
                  "type": "address"
                },
                {
                  "internalType": "uint256",
                  "name": "amount",
                  "type": "uint256"
                }
              ],
              "internalType": "struct Client.EVMTokenAmount[]",
              "name": "destTokenAmounts",
              "type": "tuple[]"
            }
          ],
          "internalType": "struct Client.Any2EVMMessage",
          "name": "message",
          "type": "tuple"
        }
      ],
      "name": "ccipReceive",
      "outputs": [],
      "stateMutability": "nonpayable",
      "type": "function"
    },
    {
      "inputs": [
        {
          "internalType": "uint256",
          "name": "amount",
          "type": "uint256"
        }
      ],
      "name": "depositLink",
      "outputs": [],
      "stateMutability": "nonpayable",
      "type": "function"
    },
    {
      "inputs": [
        {
          "internalType": "uint64",
          "name": "destinationChainSelector",
          "type": "uint64"
        },
        {
          "internalType": "address",
          "name": "receiver",
          "type": "address"
        },
        {
          "internalType": "bytes",
          "name": "text",
          "type": "bytes"
        }
      ],
      "name": "estimateFee",
      "outputs": [
        {
          "internalType": "uint256",
          "name": "",
          "type": "uint256"
        }
      ],
      "stateMutability": "view",
      "type": "function"
    },
    {
      "inputs": [],
      "name": "getLinkTokenAddress",
      "outputs": [
        {
          "internalType": "address",
          "name": "",
          "type": "address"
        }
      ],
      "stateMutability": "view",
      "type": "function"
    },
    {
      "inputs": [],
      "name": "getRouter",
      "outputs": [
        {
          "internalType": "address",
          "name": "",
          "type": "address"
        }
      ],
      "stateMutability": "view",
      "type": "function"
    },
    {
      "inputs": [],
      "name": "getRouterAddress",
      "outputs": [
        {
          "internalType": "address",
          "name": "",
          "type": "address"
        }
      ],
      "stateMutability": "view",
      "type": "function"
    },
    {
      "inputs": [
        {
          "internalType": "uint256",
          "name": "tokenId",
          "type": "uint256"
        },
        {
          "internalType": "address",
          "name": "newOwner",
          "type": "address"
        },
        {
          "internalType": "uint64",
          "name": "chainSelector",
          "type": "uint64"
        },
        {
          "internalType": "address",
          "name": "receiver",
          "type": "address"
        }
      ],
      "name": "lockAndSendNFT",
      "outputs": [
        {
          "internalType": "bytes32",
          "name": "",
          "type": "bytes32"
        }
      ],
      "stateMutability": "nonpayable",
      "type": "function"
    },
    {
      "inputs": [
        {
          "internalType": "uint256",
          "name": "tokenId",
          "type": "uint256"
        }
      ],
      "name": "lockNFT",
      "outputs": [
        {
          "internalType": "bool",
          "name": "",
          "type": "bool"
        }
      ],
      "stateMutability": "nonpayable",
      "type": "function"
    },
    {
      "inputs": [],
      "name": "nft",
      "outputs": [
        {
          "internalType": "contract MyToken",
          "name": "",
          "type": "address"
        }
      ],
      "stateMutability": "view",
      "type": "function"
    },
    {
      "inputs": [
        {
          "internalType": "address",
          "name": "operator",
          "type": "address"
        },
        {
          "internalType": "address",
          "name": "from",
          "type": "address"
        },
        {
          "internalType": "uint256",
          "name": "tokenId",
          "type": "uint256"
        },
        {
          "internalType": "bytes",
          "name": "data",
          "type": "bytes"
        }
      ],
      "name": "onERC721Received",
      "outputs": [
        {
          "internalType": "bytes4",
          "name": "",
          "type": "bytes4"
        }
      ],
      "stateMutability": "pure",
      "type": "function"
    },
    {
      "inputs": [],
      "name": "owner",
      "outputs": [
        {
          "internalType": "address",
          "name": "",
          "type": "address"
        }
      ],
      "stateMutability": "view",
      "type": "function"
    },
    {
      "inputs": [
        {
          "internalType": "bytes4",
          "name": "interfaceId",
          "type": "bytes4"
        }
      ],
      "name": "supportsInterface",
      "outputs": [
        {
          "internalType": "bool",
          "name": "",
          "type": "bool"
        }
      ],
      "stateMutability": "pure",
      "type": "function"
    },
    {
      "inputs": [
        {
          "internalType": "address",
          "name": "to",
          "type": "address"
        }
      ],
      "name": "transferOwnership",
      "outputs": [],
      "stateMutability": "nonpayable",
      "type": "function"
    },
    {
      "inputs": [
        {
          "internalType": "uint256",
          "name": "amount",
          "type": "uint256"
        }
      ],
      "name": "withdrawLink",
      "outputs": [],
      "stateMutability": "nonpayable",
      "type": "function"
    }
  ],
  "transactionHash": "0x5153812c9cd75a1f7a82ae35bf93136e1e145b1e8406e619b2ebe42eaab42e65",
  "args": [
    "0x0BF3dE8c5D3e8A2B34D2BEeB17ABfCeBaf363A59",
    "0x779877A7B0D9E8603169DdbD7836e478b4624789",
    "0x2A34330dC56A4f2f3e9Aa50715Fac4DB6794f2FC"
  ],
  "numDeployments": 11,
  "solcInputHash": "a62bd0052b9e54f0c4be9f3930d3c55b",
  "bytecode": "0x60a06040523480156200001157600080fd5b506040516200321f3803806200321f833981810160405281019062000037919062000446565b82338060008073ffffffffffffffffffffffffffffffffffffffff168273ffffffffffffffffffffffffffffffffffffffff1603620000ad576040517f08c379a0000000000000000000000000000000000000000000000000000000008152600401620000a49062000503565b60405180910390fd5b816000806101000a81548173ffffffffffffffffffffffffffffffffffffffff021916908373ffffffffffffffffffffffffffffffffffffffff160217905550600073ffffffffffffffffffffffffffffffffffffffff168173ffffffffffffffffffffffffffffffffffffffff161462000134576200013381620002ad60201b60201c565b5b505050600073ffffffffffffffffffffffffffffffffffffffff168173ffffffffffffffffffffffffffffffffffffffff1603620001ac5760006040517fd7f73334000000000000000000000000000000000000000000000000000000008152600401620001a3919062000536565b60405180910390fd5b8073ffffffffffffffffffffffffffffffffffffffff1660808173ffffffffffffffffffffffffffffffffffffffff16815250505082600260006101000a81548173ffffffffffffffffffffffffffffffffffffffff021916908373ffffffffffffffffffffffffffffffffffffffff16021790555081600360006101000a81548173ffffffffffffffffffffffffffffffffffffffff021916908373ffffffffffffffffffffffffffffffffffffffff16021790555080600460006101000a81548173ffffffffffffffffffffffffffffffffffffffff021916908373ffffffffffffffffffffffffffffffffffffffff160217905550505050620005c5565b3373ffffffffffffffffffffffffffffffffffffffff168173ffffffffffffffffffffffffffffffffffffffff16036200031e576040517f08c379a00000000000000000000000000000000000000000000000000000000081526004016200031590620005a3565b60405180910390fd5b80600160006101000a81548173ffffffffffffffffffffffffffffffffffffffff021916908373ffffffffffffffffffffffffffffffffffffffff1602179055508073ffffffffffffffffffffffffffffffffffffffff1660008054906101000a900473ffffffffffffffffffffffffffffffffffffffff1673ffffffffffffffffffffffffffffffffffffffff167fed8889f560326eb138920d842192f0eb3dd22b4f139c87a2c57538e05bae127860405160405180910390a350565b600080fd5b600073ffffffffffffffffffffffffffffffffffffffff82169050919050565b60006200040e82620003e1565b9050919050565b620004208162000401565b81146200042c57600080fd5b50565b600081519050620004408162000415565b92915050565b600080600060608486031215620004625762000461620003dc565b5b600062000472868287016200042f565b935050602062000485868287016200042f565b925050604062000498868287016200042f565b9150509250925092565b600082825260208201905092915050565b7f43616e6e6f7420736574206f776e657220746f207a65726f0000000000000000600082015250565b6000620004eb601883620004a2565b9150620004f882620004b3565b602082019050919050565b600060208201905081810360008301526200051e81620004dc565b9050919050565b620005308162000401565b82525050565b60006020820190506200054d600083018462000525565b92915050565b7f43616e6e6f74207472616e7366657220746f2073656c66000000000000000000600082015250565b60006200058b601783620004a2565b9150620005988262000553565b602082019050919050565b60006020820190508181036000830152620005be816200057c565b9050919050565b608051612c3e620005e16000396000610ca40152612c3e6000f3fe608060405234801561001057600080fd5b50600436106100f55760003560e01c80638da5cb5b11610097578063e34ed57511610066578063e34ed57514610274578063f2fde38b146102a4578063f9eafa70146102c0578063ff680595146102dc576100f5565b80638da5cb5b146101ea5780639dcba4df14610208578063b0f479a114610238578063d54f7d5e14610256576100f5565b806347ccca02116100d357806347ccca021461018a57806379ba5097146101a85780637a8042bd146101b257806385572ffb146101ce576100f5565b806301ffc9a7146100fa578063150b7a021461012a5780632b7170d01461015a575b600080fd5b610114600480360381019061010f91906119c6565b6102fa565b6040516101219190611a0e565b60405180910390f35b610144600480360381019061013f9190611b22565b6103cc565b6040516101519190611bb9565b60405180910390f35b610174600480360381019061016f9190611bd4565b6103e1565b6040516101819190611a0e565b60405180910390f35b610192610607565b60405161019f9190611c60565b60405180910390f35b6101b061062d565b005b6101cc60048036038101906101c79190611bd4565b6107c2565b005b6101e860048036038101906101e39190611c9f565b6108ea565b005b6101f2610976565b6040516101ff9190611cf7565b60405180910390f35b610222600480360381019061021d9190611e93565b61099f565b60405161022f9190611f11565b60405180910390f35b610240610ca0565b60405161024d9190611cf7565b60405180910390f35b61025e610cc8565b60405161026b9190611cf7565b60405180910390f35b61028e60048036038101906102899190611f2c565b610cf2565b60405161029b9190611fac565b60405180910390f35b6102be60048036038101906102b99190611fc7565b610e3c565b005b6102da60048036038101906102d59190611bd4565b610e50565b005b6102e4610f6d565b6040516102f19190611cf7565b60405180910390f35b60007f85572ffb000000000000000000000000000000000000000000000000000000007bffffffffffffffffffffffffffffffffffffffffffffffffffffffff1916827bffffffffffffffffffffffffffffffffffffffffffffffffffffffff191614806103c557507f01ffc9a7000000000000000000000000000000000000000000000000000000007bffffffffffffffffffffffffffffffffffffffffffffffffffffffff1916827bffffffffffffffffffffffffffffffffffffffffffffffffffffffff1916145b9050919050565b600063150b7a0260e01b905095945050505050565b60003073ffffffffffffffffffffffffffffffffffffffff16600460009054906101000a900473ffffffffffffffffffffffffffffffffffffffff1673ffffffffffffffffffffffffffffffffffffffff16636352211e846040518263ffffffff1660e01b81526004016104559190611f11565b602060405180830381865afa158015610472573d6000803e3d6000fd5b505050506040513d601f19601f820116820180604052508101906104969190612009565b73ffffffffffffffffffffffffffffffffffffffff16146105c457600460009054906101000a900473ffffffffffffffffffffffffffffffffffffffff1673ffffffffffffffffffffffffffffffffffffffff166323b872dd3330856040518463ffffffff1660e01b815260040161051093929190612036565b600060405180830381600087803b15801561052a57600080fd5b505af192505050801561053b575060015b610580578133306040517ff3d65b5f0000000000000000000000000000000000000000000000000000000081526004016105779392919061206d565b60405180910390fd5b7f67043fac5fd2bf9edbb46ee495aaed7f97f91d43507d373be2b592af19b8c0a88233306040516105b39392919061206d565b60405180910390a160019050610602565b7f9aee64c4a315898a7d91647d3f00e2855a2ae32ae28a77ae7e12a9190fe1cb7182336040516105f59291906120a4565b60405180910390a1600190505b919050565b600460009054906101000a900473ffffffffffffffffffffffffffffffffffffffff1681565b600160009054906101000a900473ffffffffffffffffffffffffffffffffffffffff1673ffffffffffffffffffffffffffffffffffffffff163373ffffffffffffffffffffffffffffffffffffffff16146106bd576040517f08c379a00000000000000000000000000000000000000000000000000000000081526004016106b49061212a565b60405180910390fd5b60008060009054906101000a900473ffffffffffffffffffffffffffffffffffffffff169050336000806101000a81548173ffffffffffffffffffffffffffffffffffffffff021916908373ffffffffffffffffffffffffffffffffffffffff1602179055506000600160006101000a81548173ffffffffffffffffffffffffffffffffffffffff021916908373ffffffffffffffffffffffffffffffffffffffff1602179055503373ffffffffffffffffffffffffffffffffffffffff168173ffffffffffffffffffffffffffffffffffffffff167f8be0079c531659141344cd1fd0a4f28419497f9722a3daafe3b4186f6b6457e060405160405180910390a350565b6107ca610f97565b600360009054906101000a900473ffffffffffffffffffffffffffffffffffffffff1673ffffffffffffffffffffffffffffffffffffffff1663a9059cbb610810610976565b836040518363ffffffff1660e01b815260040161082e92919061214a565b6020604051808303816000875af115801561084d573d6000803e3d6000fd5b505050506040513d601f19601f82011682018060405250810190610871919061219f565b6108b0576040517f08c379a00000000000000000000000000000000000000000000000000000000081526004016108a790612218565b60405180910390fd5b7f1a75917c8965c2b9722b0cae30df645224fca070ce7c8edc2c3e208f6ae71b43816040516108df9190611f11565b60405180910390a150565b6108f2610ca0565b73ffffffffffffffffffffffffffffffffffffffff163373ffffffffffffffffffffffffffffffffffffffff161461096157336040517fd7f733340000000000000000000000000000000000000000000000000000000081526004016109589190611cf7565b60405180910390fd5b6109738161096e90612461565b611027565b50565b60008060009054906101000a900473ffffffffffffffffffffffffffffffffffffffff16905090565b6000808467ffffffffffffffff16036109ef57836040517fd9a9cd680000000000000000000000000000000000000000000000000000000081526004016109e69190612483565b60405180910390fd5b600073ffffffffffffffffffffffffffffffffffffffff168373ffffffffffffffffffffffffffffffffffffffff1603610a6057826040517f4a149d08000000000000000000000000000000000000000000000000000000008152600401610a579190611cf7565b60405180910390fd5b60006040518060a0016040528085604051602001610a7e9190611cf7565b6040516020818303038152906040528152602001848152602001600067ffffffffffffffff811115610ab357610ab2611d68565b5b604051908082528060200260200182016040528015610aec57816020015b610ad961192a565b815260200190600190039081610ad15790505b508152602001600360009054906101000a900473ffffffffffffffffffffffffffffffffffffffff1673ffffffffffffffffffffffffffffffffffffffff168152602001610b53604051806040016040528062030d40815260200160011515815250611115565b8152509050600260009054906101000a900473ffffffffffffffffffffffffffffffffffffffff1673ffffffffffffffffffffffffffffffffffffffff166320487ded86836040518363ffffffff1660e01b8152600401610bb59291906126a4565b602060405180830381865afa925050508015610bef57506040513d601f19601f82011682018060405250810190610bec91906126e9565b60015b610c9457610bfb612723565b806308c379a003610c575750610c0f612745565b80610c1a5750610c59565b806040517f08c379a0000000000000000000000000000000000000000000000000000000008152600401610c4e9190612819565b60405180910390fd5b505b6040517f08c379a0000000000000000000000000000000000000000000000000000000008152600401610c8b90612887565b60405180910390fd5b80925050509392505050565b60007f0000000000000000000000000000000000000000000000000000000000000000905090565b6000600260009054906101000a900473ffffffffffffffffffffffffffffffffffffffff16905090565b6000808367ffffffffffffffff1603610d4257826040517fd9a9cd68000000000000000000000000000000000000000000000000000000008152600401610d399190612483565b60405180910390fd5b600073ffffffffffffffffffffffffffffffffffffffff168273ffffffffffffffffffffffffffffffffffffffff1603610db357816040517f4a149d08000000000000000000000000000000000000000000000000000000008152600401610daa9190611cf7565b60405180910390fd5b7f349e6c88df4bd490b940093e020cc7344c1a6e0ae9208b334a8fc133cb4a2f1f85338585604051610de894939291906128a7565b60405180910390a1610df9856103e1565b5060008585604051602001610e0f9291906120a4565b60405160208183030381529060405290506000610e2d858584611194565b90508092505050949350505050565b610e44610f97565b610e4d816117fe565b50565b600360009054906101000a900473ffffffffffffffffffffffffffffffffffffffff1673ffffffffffffffffffffffffffffffffffffffff166323b872dd3330846040518463ffffffff1660e01b8152600401610eaf93929190612036565b6020604051808303816000875af1158015610ece573d6000803e3d6000fd5b505050506040513d601f19601f82011682018060405250810190610ef2919061219f565b610f31576040517f08c379a0000000000000000000000000000000000000000000000000000000008152600401610f2890612218565b60405180910390fd5b7fa3816b8339d00e8d3324cb6e59b56877f59ab60299c6560c8675c797b926ca503382604051610f6292919061214a565b60405180910390a150565b6000600360009054906101000a900473ffffffffffffffffffffffffffffffffffffffff16905090565b60008054906101000a900473ffffffffffffffffffffffffffffffffffffffff1673ffffffffffffffffffffffffffffffffffffffff163373ffffffffffffffffffffffffffffffffffffffff1614611025576040517f08c379a000000000000000000000000000000000000000000000000000000000815260040161101c90612938565b60405180910390fd5b565b60008082606001518060200190518101906110429190612996565b91509150600460009054906101000a900473ffffffffffffffffffffffffffffffffffffffff1673ffffffffffffffffffffffffffffffffffffffff166323b872dd3083856040518463ffffffff1660e01b81526004016110a593929190612036565b600060405180830381600087803b1580156110bf57600080fd5b505af11580156110d3573d6000803e3d6000fd5b505050507f0fe7d9801197f79ef3b1595d19379eb58f0fff5f98b0f6d6f34c03cae5306c3782826040516111089291906120a4565b60405180910390a1505050565b606063181dcf1060e01b826040516024016111309190612a14565b604051602081830303815290604052907bffffffffffffffffffffffffffffffffffffffffffffffffffffffff19166020820180517bffffffffffffffffffffffffffffffffffffffffffffffffffffffff83818316178352505050509050919050565b6000806207a120905062aa36a746036111ae57620493e090505b61426846036111be5762061a8090505b60006040518060a00160405280866040516020016111dc9190611cf7565b6040516020818303038152906040528152602001858152602001600067ffffffffffffffff81111561121157611210611d68565b5b60405190808252806020026020018201604052801561124a57816020015b61123761192a565b81526020019060019003908161122f5790505b508152602001600360009054906101000a900473ffffffffffffffffffffffffffffffffffffffff1673ffffffffffffffffffffffffffffffffffffffff1681526020016112ae604051806040016040528086815260200160011515815250611115565b81525090506000600260009054906101000a900473ffffffffffffffffffffffffffffffffffffffff1673ffffffffffffffffffffffffffffffffffffffff166320487ded88846040518363ffffffff1660e01b81526004016113129291906126a4565b602060405180830381865afa92505050801561134c57506040513d601f19601f8201168201806040525081019061134991906126e9565b60015b6113f157611358612723565b806308c379a0036113b4575061136c612745565b8061137757506113b6565b806040517f08c379a00000000000000000000000000000000000000000000000000000000081526004016113ab9190612819565b60405180910390fd5b505b6040517f08c379a00000000000000000000000000000000000000000000000000000000081526004016113e890612887565b60405180910390fd5b809150507fcb6086a6b0a60a46104eac2c3425985f378532dac30818ef145f6cf549a28b43816040516114249190611f11565b60405180910390a16000600360009054906101000a900473ffffffffffffffffffffffffffffffffffffffff1673ffffffffffffffffffffffffffffffffffffffff166370a08231306040518263ffffffff1660e01b81526004016114899190611cf7565b602060405180830381865afa1580156114a6573d6000803e3d6000fd5b505050506040513d601f19601f820116820180604052508101906114ca91906126e9565b90507ff655dca3b6a4d711d64e8b086863c74cc785ab4a0b6c433fe8a585cd9f3bd60c81836040516114fd929190612a2f565b60405180910390a18082111561154c5780826040517f8f0f4206000000000000000000000000000000000000000000000000000000008152600401611543929190612a2f565b60405180910390fd5b600360009054906101000a900473ffffffffffffffffffffffffffffffffffffffff1673ffffffffffffffffffffffffffffffffffffffff1663095ea7b3600260009054906101000a900473ffffffffffffffffffffffffffffffffffffffff16846040518363ffffffff1660e01b81526004016115cb92919061214a565b6020604051808303816000875af11580156115ea573d6000803e3d6000fd5b505050506040513d601f19601f8201168201806040525081019061160e919061219f565b50600260009054906101000a900473ffffffffffffffffffffffffffffffffffffffff1673ffffffffffffffffffffffffffffffffffffffff166396f4e9f989856040518363ffffffff1660e01b815260040161166c9291906126a4565b6020604051808303816000875af19250505080156116a857506040513d601f19601f820116820180604052508101906116a59190612a6d565b60015b61174d576116b4612723565b806308c379a00361171057506116c8612745565b806116d35750611712565b806040517f08c379a00000000000000000000000000000000000000000000000000000000081526004016117079190612819565b60405180910390fd5b505b6040517f08c379a000000000000000000000000000000000000000000000000000000000815260040161174490612ae6565b60405180910390fd5b809550507f69e27f80547602d16208b028c44d20f25956e1fb7d0f51d62aa02f392426f371826040516117809190611f11565b60405180910390a18767ffffffffffffffff16857f3d8a9f055772202d2c3c1fddbad930d3dbe588d8692b75b84cee0719462829118989600360009054906101000a900473ffffffffffffffffffffffffffffffffffffffff16876040516117eb9493929190612b50565b60405180910390a3505050509392505050565b3373ffffffffffffffffffffffffffffffffffffffff168173ffffffffffffffffffffffffffffffffffffffff160361186c576040517f08c379a000000000000000000000000000000000000000000000000000000000815260040161186390612be8565b60405180910390fd5b80600160006101000a81548173ffffffffffffffffffffffffffffffffffffffff021916908373ffffffffffffffffffffffffffffffffffffffff1602179055508073ffffffffffffffffffffffffffffffffffffffff1660008054906101000a900473ffffffffffffffffffffffffffffffffffffffff1673ffffffffffffffffffffffffffffffffffffffff167fed8889f560326eb138920d842192f0eb3dd22b4f139c87a2c57538e05bae127860405160405180910390a350565b6040518060400160405280600073ffffffffffffffffffffffffffffffffffffffff168152602001600081525090565b6000604051905090565b600080fd5b600080fd5b60007fffffffff0000000000000000000000000000000000000000000000000000000082169050919050565b6119a38161196e565b81146119ae57600080fd5b50565b6000813590506119c08161199a565b92915050565b6000602082840312156119dc576119db611964565b5b60006119ea848285016119b1565b91505092915050565b60008115159050919050565b611a08816119f3565b82525050565b6000602082019050611a2360008301846119ff565b92915050565b600073ffffffffffffffffffffffffffffffffffffffff82169050919050565b6000611a5482611a29565b9050919050565b611a6481611a49565b8114611a6f57600080fd5b50565b600081359050611a8181611a5b565b92915050565b6000819050919050565b611a9a81611a87565b8114611aa557600080fd5b50565b600081359050611ab781611a91565b92915050565b600080fd5b600080fd5b600080fd5b60008083601f840112611ae257611ae1611abd565b5b8235905067ffffffffffffffff811115611aff57611afe611ac2565b5b602083019150836001820283011115611b1b57611b1a611ac7565b5b9250929050565b600080600080600060808688031215611b3e57611b3d611964565b5b6000611b4c88828901611a72565b9550506020611b5d88828901611a72565b9450506040611b6e88828901611aa8565b935050606086013567ffffffffffffffff811115611b8f57611b8e611969565b5b611b9b88828901611acc565b92509250509295509295909350565b611bb38161196e565b82525050565b6000602082019050611bce6000830184611baa565b92915050565b600060208284031215611bea57611be9611964565b5b6000611bf884828501611aa8565b91505092915050565b6000819050919050565b6000611c26611c21611c1c84611a29565b611c01565b611a29565b9050919050565b6000611c3882611c0b565b9050919050565b6000611c4a82611c2d565b9050919050565b611c5a81611c3f565b82525050565b6000602082019050611c756000830184611c51565b92915050565b600080fd5b600060a08284031215611c9657611c95611c7b565b5b81905092915050565b600060208284031215611cb557611cb4611964565b5b600082013567ffffffffffffffff811115611cd357611cd2611969565b5b611cdf84828501611c80565b91505092915050565b611cf181611a49565b82525050565b6000602082019050611d0c6000830184611ce8565b92915050565b600067ffffffffffffffff82169050919050565b611d2f81611d12565b8114611d3a57600080fd5b50565b600081359050611d4c81611d26565b92915050565b600080fd5b6000601f19601f8301169050919050565b7f4e487b7100000000000000000000000000000000000000000000000000000000600052604160045260246000fd5b611da082611d57565b810181811067ffffffffffffffff82111715611dbf57611dbe611d68565b5b80604052505050565b6000611dd261195a565b9050611dde8282611d97565b919050565b600067ffffffffffffffff821115611dfe57611dfd611d68565b5b611e0782611d57565b9050602081019050919050565b82818337600083830152505050565b6000611e36611e3184611de3565b611dc8565b905082815260208101848484011115611e5257611e51611d52565b5b611e5d848285611e14565b509392505050565b600082601f830112611e7a57611e79611abd565b5b8135611e8a848260208601611e23565b91505092915050565b600080600060608486031215611eac57611eab611964565b5b6000611eba86828701611d3d565b9350506020611ecb86828701611a72565b925050604084013567ffffffffffffffff811115611eec57611eeb611969565b5b611ef886828701611e65565b9150509250925092565b611f0b81611a87565b82525050565b6000602082019050611f266000830184611f02565b92915050565b60008060008060808587031215611f4657611f45611964565b5b6000611f5487828801611aa8565b9450506020611f6587828801611a72565b9350506040611f7687828801611d3d565b9250506060611f8787828801611a72565b91505092959194509250565b6000819050919050565b611fa681611f93565b82525050565b6000602082019050611fc16000830184611f9d565b92915050565b600060208284031215611fdd57611fdc611964565b5b6000611feb84828501611a72565b91505092915050565b60008151905061200381611a5b565b92915050565b60006020828403121561201f5761201e611964565b5b600061202d84828501611ff4565b91505092915050565b600060608201905061204b6000830186611ce8565b6120586020830185611ce8565b6120656040830184611f02565b949350505050565b60006060820190506120826000830186611f02565b61208f6020830185611ce8565b61209c6040830184611ce8565b949350505050565b60006040820190506120b96000830185611f02565b6120c66020830184611ce8565b9392505050565b600082825260208201905092915050565b7f4d7573742062652070726f706f736564206f776e657200000000000000000000600082015250565b60006121146016836120cd565b915061211f826120de565b602082019050919050565b6000602082019050818103600083015261214381612107565b9050919050565b600060408201905061215f6000830185611ce8565b61216c6020830184611f02565b9392505050565b61217c816119f3565b811461218757600080fd5b50565b60008151905061219981612173565b92915050565b6000602082840312156121b5576121b4611964565b5b60006121c38482850161218a565b91505092915050565b7f5472616e73666572206661696c65640000000000000000000000000000000000600082015250565b6000612202600f836120cd565b915061220d826121cc565b602082019050919050565b60006020820190508181036000830152612231816121f5565b9050919050565b600080fd5b600080fd5b61224b81611f93565b811461225657600080fd5b50565b60008135905061226881612242565b92915050565b600067ffffffffffffffff82111561228957612288611d68565b5b602082029050602081019050919050565b6000604082840312156122b0576122af612238565b5b6122ba6040611dc8565b905060006122ca84828501611a72565b60008301525060206122de84828501611aa8565b60208301525092915050565b60006122fd6122f88461226e565b611dc8565b905080838252602082019050604084028301858111156123205761231f611ac7565b5b835b818110156123495780612335888261229a565b845260208401935050604081019050612322565b5050509392505050565b600082601f83011261236857612367611abd565b5b81356123788482602086016122ea565b91505092915050565b600060a0828403121561239757612396612238565b5b6123a160a0611dc8565b905060006123b184828501612259565b60008301525060206123c584828501611d3d565b602083015250604082013567ffffffffffffffff8111156123e9576123e861223d565b5b6123f584828501611e65565b604083015250606082013567ffffffffffffffff8111156124195761241861223d565b5b61242584828501611e65565b606083015250608082013567ffffffffffffffff8111156124495761244861223d565b5b61245584828501612353565b60808301525092915050565b600061246d3683612381565b9050919050565b61247d81611d12565b82525050565b60006020820190506124986000830184612474565b92915050565b600081519050919050565b600082825260208201905092915050565b60005b838110156124d85780820151818401526020810190506124bd565b60008484015250505050565b60006124ef8261249e565b6124f981856124a9565b93506125098185602086016124ba565b61251281611d57565b840191505092915050565b600081519050919050565b600082825260208201905092915050565b6000819050602082019050919050565b61255281611a49565b82525050565b61256181611a87565b82525050565b60408201600082015161257d6000850182612549565b5060208201516125906020850182612558565b50505050565b60006125a28383612567565b60408301905092915050565b6000602082019050919050565b60006125c68261251d565b6125d08185612528565b93506125db83612539565b8060005b8381101561260c5781516125f38882612596565b97506125fe836125ae565b9250506001810190506125df565b5085935050505092915050565b600060a083016000830151848203600086015261263682826124e4565b9150506020830151848203602086015261265082826124e4565b9150506040830151848203604086015261266a82826125bb565b915050606083015161267f6060860182612549565b506080830151848203608086015261269782826124e4565b9150508091505092915050565b60006040820190506126b96000830185612474565b81810360208301526126cb8184612619565b90509392505050565b6000815190506126e381611a91565b92915050565b6000602082840312156126ff576126fe611964565b5b600061270d848285016126d4565b91505092915050565b60008160e01c9050919050565b600060033d11156127425760046000803e61273f600051612716565b90505b90565b600060443d106127d25761275761195a565b60043d036004823e80513d602482011167ffffffffffffffff8211171561277f5750506127d2565b808201805167ffffffffffffffff81111561279d57505050506127d2565b80602083010160043d0385018111156127ba5750505050506127d2565b6127c982602001850186611d97565b82955050505050505b90565b600081519050919050565b60006127eb826127d5565b6127f581856120cd565b93506128058185602086016124ba565b61280e81611d57565b840191505092915050565b6000602082019050818103600083015261283381846127e0565b905092915050565b7f466565457374696d6174696f6e4661696c656400000000000000000000000000600082015250565b60006128716013836120cd565b915061287c8261283b565b602082019050919050565b600060208201905081810360008301526128a081612864565b9050919050565b60006080820190506128bc6000830187611f02565b6128c96020830186611ce8565b6128d66040830185612474565b6128e36060830184611ce8565b95945050505050565b7f4f6e6c792063616c6c61626c65206279206f776e657200000000000000000000600082015250565b60006129226016836120cd565b915061292d826128ec565b602082019050919050565b6000602082019050818103600083015261295181612915565b9050919050565b600061296382611a29565b9050919050565b61297381612958565b811461297e57600080fd5b50565b6000815190506129908161296a565b92915050565b600080604083850312156129ad576129ac611964565b5b60006129bb858286016126d4565b92505060206129cc85828601612981565b9150509250929050565b6129df816119f3565b82525050565b6040820160008201516129fb6000850182612558565b506020820151612a0e60208501826129d6565b50505050565b6000604082019050612a2960008301846129e5565b92915050565b6000604082019050612a446000830185611f02565b612a516020830184611f02565b9392505050565b600081519050612a6781612242565b92915050565b600060208284031215612a8357612a82611964565b5b6000612a9184828501612a58565b91505092915050565b7f4343495053656e644661696c6564000000000000000000000000000000000000600082015250565b6000612ad0600e836120cd565b9150612adb82612a9a565b602082019050919050565b60006020820190508181036000830152612aff81612ac3565b9050919050565b600082825260208201905092915050565b6000612b228261249e565b612b2c8185612b06565b9350612b3c8185602086016124ba565b612b4581611d57565b840191505092915050565b6000608082019050612b656000830187611ce8565b8181036020830152612b778186612b17565b9050612b866040830185611ce8565b612b936060830184611f02565b95945050505050565b7f43616e6e6f74207472616e7366657220746f2073656c66000000000000000000600082015250565b6000612bd26017836120cd565b9150612bdd82612b9c565b602082019050919050565b60006020820190508181036000830152612c0181612bc5565b905091905056fea26469706673582212200287270ebfc51160d3deb0ed1111ceaabf856837e203129fd679afd942ab14e864736f6c63430008180033",
  "devdoc": {
    "kind": "dev",
    "methods": {
      "ccipReceive((bytes32,uint64,bytes,bytes,(address,uint256)[]))": {
        "details": "Note ensure you check the msg.sender is the OffRampRouter.",
        "params": {
          "message": "CCIP Message."
        }
      },
      "getRouter()": {
        "returns": {
          "_0": "CCIP router address"
        }
      },
      "onERC721Received(address,address,uint256,bytes)": {
        "details": "Whenever an {IERC721} `tokenId` token is transferred to this contract via {IERC721-safeTransferFrom} by `operator` from `from`, this function is called. It must return its Solidity selector to confirm the token transfer. If any other value is returned or the interface is not implemented by the recipient, the transfer will be reverted. The selector can be obtained in Solidity with `IERC721Receiver.onERC721Received.selector`."
      },
      "supportsInterface(bytes4)": {
        "details": "Should indicate whether the contract implements IAny2EVMMessageReceiver. e.g. return interfaceId == type(IAny2EVMMessageReceiver).interfaceId || interfaceId == type(IERC165).interfaceId This allows CCIP to check if ccipReceive is available before calling it. - If this returns false or reverts, only tokens are transferred to the receiver. - If this returns true, tokens are transferred and ccipReceive is called atomically. Additionally, if the receiver address does not have code associated with it at the time of execution (EXTCODESIZE returns 0), only tokens will be transferred.",
        "params": {
          "interfaceId": "The interfaceId to check."
        },
        "returns": {
          "_0": "true if the interfaceId is supported."
        }
      }
    },
    "version": 1
  },
  "userdoc": {
    "kind": "user",
    "methods": {
      "acceptOwnership()": {
        "notice": "Allows an ownership transfer to be completed by the recipient."
      },
      "ccipReceive((bytes32,uint64,bytes,bytes,(address,uint256)[]))": {
        "notice": "Called by the Router to deliver a message. If this reverts, any token transfers also revert. The message will move to a FAILED state and become available for manual execution."
      },
      "getRouter()": {
        "notice": "Return the current router"
      },
      "owner()": {
        "notice": "Get the current owner"
      },
      "supportsInterface(bytes4)": {
        "notice": "IERC165 supports an interfaceId."
      },
      "transferOwnership(address)": {
        "notice": "Allows an owner to begin transferring ownership to a new address."
      }
    },
    "version": 1
  },
  "storageLayout": {
    "storage": [
      {
        "astId": 352,
        "contract": "contracts/NFTPoolLockAndRelease.sol:NFTPoolLockAndRelease",
        "label": "s_owner",
        "offset": 0,
        "slot": "0",
        "type": "t_address"
      },
      {
        "astId": 354,
        "contract": "contracts/NFTPoolLockAndRelease.sol:NFTPoolLockAndRelease",
        "label": "s_pendingOwner",
        "offset": 0,
        "slot": "1",
        "type": "t_address"
      },
      {
        "astId": 7951,
        "contract": "contracts/NFTPoolLockAndRelease.sol:NFTPoolLockAndRelease",
        "label": "s_router",
        "offset": 0,
        "slot": "2",
        "type": "t_contract(IRouterClient)173"
      },
      {
        "astId": 7954,
        "contract": "contracts/NFTPoolLockAndRelease.sol:NFTPoolLockAndRelease",
        "label": "s_linkToken",
        "offset": 0,
        "slot": "3",
        "type": "t_contract(LinkTokenInterface)633"
      },
      {
        "astId": 7957,
        "contract": "contracts/NFTPoolLockAndRelease.sol:NFTPoolLockAndRelease",
        "label": "nft",
        "offset": 0,
        "slot": "4",
        "type": "t_contract(MyToken)7926"
      }
    ],
    "types": {
      "t_address": {
        "encoding": "inplace",
        "label": "address",
        "numberOfBytes": "20"
      },
      "t_contract(IRouterClient)173": {
        "encoding": "inplace",
        "label": "contract IRouterClient",
        "numberOfBytes": "20"
      },
      "t_contract(LinkTokenInterface)633": {
        "encoding": "inplace",
        "label": "contract LinkTokenInterface",
        "numberOfBytes": "20"
      },
      "t_contract(MyToken)7926": {
        "encoding": "inplace",
        "label": "contract MyToken",
        "numberOfBytes": "20"
      }
    }
  }
}