{
  "address": "0x8f2477B985dbDFc2F2CC492074F788E6D0808Ed9",
  "abi": [
    {
      "inputs": [
        {
          "internalType": "address",
          "name": "_router",
          "type": "address"
        },
        {
          "internalType": "address",
          "name": "_link",
          "type": "address"
        },
        {
          "internalType": "address",
          "name": "nftAddress",
          "type": "address"
        }
      ],
      "stateMutability": "nonpayable",
      "type": "constructor"
    },
    {
      "inputs": [
        {
          "internalType": "address",
          "name": "router",
          "type": "address"
        }
      ],
      "name": "InvalidRouter",
      "type": "error"
    },
    {
      "inputs": [
        {
          "internalType": "uint256",
          "name": "currentBalance",
          "type": "uint256"
        },
        {
          "internalType": "uint256",
          "name": "calculatedFees",
          "type": "uint256"
        }
      ],
      "name": "NotEnoughBalance",
      "type": "error"
    },
    {
      "anonymous": false,
      "inputs": [
        {
          "indexed": true,
          "internalType": "bytes32",
          "name": "messageId",
          "type": "bytes32"
        },
        {
          "indexed": true,
          "internalType": "uint64",
          "name": "destinationChainSelector",
          "type": "uint64"
        },
        {
          "indexed": false,
          "internalType": "address",
          "name": "receiver",
          "type": "address"
        },
        {
          "indexed": false,
          "internalType": "bytes",
          "name": "text",
          "type": "bytes"
        },
        {
          "indexed": false,
          "internalType": "address",
          "name": "feeToken",
          "type": "address"
        },
        {
          "indexed": false,
          "internalType": "uint256",
          "name": "fees",
          "type": "uint256"
        }
      ],
      "name": "MessageSent",
      "type": "event"
    },
    {
      "anonymous": false,
      "inputs": [
        {
          "indexed": true,
          "internalType": "address",
          "name": "from",
          "type": "address"
        },
        {
          "indexed": true,
          "internalType": "address",
          "name": "to",
          "type": "address"
        }
      ],
      "name": "OwnershipTransferRequested",
      "type": "event"
    },
    {
      "anonymous": false,
      "inputs": [
        {
          "indexed": true,
          "internalType": "address",
          "name": "from",
          "type": "address"
        },
        {
          "indexed": true,
          "internalType": "address",
          "name": "to",
          "type": "address"
        }
      ],
      "name": "OwnershipTransferred",
      "type": "event"
    },
    {
      "anonymous": false,
      "inputs": [
        {
          "indexed": false,
          "internalType": "uint256",
          "name": "tokenId",
          "type": "uint256"
        },
        {
          "indexed": false,
          "internalType": "address",
          "name": "newOwner",
          "type": "address"
        }
      ],
      "name": "TokenMinted",
      "type": "event"
    },
    {
      "inputs": [],
      "name": "acceptOwnership",
      "outputs": [],
      "stateMutability": "nonpayable",
      "type": "function"
    },
    {
      "inputs": [
        {
          "internalType": "uint256",
          "name": "tokenId",
          "type": "uint256"
        },
        {
          "internalType": "address",
          "name": "newOwner",
          "type": "address"
        },
        {
          "internalType": "uint64",
          "name": "chainSelector",
          "type": "uint64"
        },
        {
          "internalType": "address",
          "name": "receiver",
          "type": "address"
        }
      ],
      "name": "burnAndSendNFT",
      "outputs": [
        {
          "internalType": "bytes32",
          "name": "",
          "type": "bytes32"
        }
      ],
      "stateMutability": "nonpayable",
      "type": "function"
    },
    {
      "inputs": [
        {
          "components": [
            {
              "internalType": "bytes32",
              "name": "messageId",
              "type": "bytes32"
            },
            {
              "internalType": "uint64",
              "name": "sourceChainSelector",
              "type": "uint64"
            },
            {
              "internalType": "bytes",
              "name": "sender",
              "type": "bytes"
            },
            {
              "internalType": "bytes",
              "name": "data",
              "type": "bytes"
            },
            {
              "components": [
                {
                  "internalType": "address",
                  "name": "token",
                  "type": "address"
                },
                {
                  "internalType": "uint256",
                  "name": "amount",
                  "type": "uint256"
                }
              ],
              "internalType": "struct Client.EVMTokenAmount[]",
              "name": "destTokenAmounts",
              "type": "tuple[]"
            }
          ],
          "internalType": "struct Client.Any2EVMMessage",
          "name": "message",
          "type": "tuple"
        }
      ],
      "name": "ccipReceive",
      "outputs": [],
      "stateMutability": "nonpayable",
      "type": "function"
    },
    {
      "inputs": [],
      "name": "getRouter",
      "outputs": [
        {
          "internalType": "address",
          "name": "",
          "type": "address"
        }
      ],
      "stateMutability": "view",
      "type": "function"
    },
    {
      "inputs": [],
      "name": "owner",
      "outputs": [
        {
          "internalType": "address",
          "name": "",
          "type": "address"
        }
      ],
      "stateMutability": "view",
      "type": "function"
    },
    {
      "inputs": [
        {
          "internalType": "bytes4",
          "name": "interfaceId",
          "type": "bytes4"
        }
      ],
      "name": "supportsInterface",
      "outputs": [
        {
          "internalType": "bool",
          "name": "",
          "type": "bool"
        }
      ],
      "stateMutability": "pure",
      "type": "function"
    },
    {
      "inputs": [
        {
          "internalType": "uint256",
          "name": "",
          "type": "uint256"
        }
      ],
      "name": "tokenLocked",
      "outputs": [
        {
          "internalType": "bool",
          "name": "",
          "type": "bool"
        }
      ],
      "stateMutability": "view",
      "type": "function"
    },
    {
      "inputs": [
        {
          "internalType": "address",
          "name": "to",
          "type": "address"
        }
      ],
      "name": "transferOwnership",
      "outputs": [],
      "stateMutability": "nonpayable",
      "type": "function"
    },
    {
      "inputs": [],
      "name": "wnft",
      "outputs": [
        {
          "internalType": "contract WrappedMyToken",
          "name": "",
          "type": "address"
        }
      ],
      "stateMutability": "view",
      "type": "function"
    }
  ],
  "transactionHash": "0x46e23a47e79bf585bf17777c1383dd42c818c5a9fa961ffacd9e2bbb22af0967",
  "args": [
    "0xb9531b46fE8808fB3659e39704953c2B1112DD43",
    "0x685cE6742351ae9b618F383883D6d1e0c5A31B4B",
    "0x0659D3CA11FC46c6358f1F97686147cc1Bf9e2b0"
  ],
  "numDeployments": 1,
  "solcInputHash": "1cf975a1d13c2bd0714e3e63826080b7",
  "bytecode": "0x60a06040523480156200001157600080fd5b506040516200233a3803806200233a833981810160405281019062000037919062000446565b82338060008073ffffffffffffffffffffffffffffffffffffffff168273ffffffffffffffffffffffffffffffffffffffff1603620000ad576040517f08c379a0000000000000000000000000000000000000000000000000000000008152600401620000a49062000503565b60405180910390fd5b816000806101000a81548173ffffffffffffffffffffffffffffffffffffffff021916908373ffffffffffffffffffffffffffffffffffffffff160217905550600073ffffffffffffffffffffffffffffffffffffffff168173ffffffffffffffffffffffffffffffffffffffff161462000134576200013381620002ad60201b60201c565b5b505050600073ffffffffffffffffffffffffffffffffffffffff168173ffffffffffffffffffffffffffffffffffffffff1603620001ac5760006040517fd7f73334000000000000000000000000000000000000000000000000000000008152600401620001a3919062000536565b60405180910390fd5b8073ffffffffffffffffffffffffffffffffffffffff1660808173ffffffffffffffffffffffffffffffffffffffff16815250505082600260006101000a81548173ffffffffffffffffffffffffffffffffffffffff021916908373ffffffffffffffffffffffffffffffffffffffff16021790555081600360006101000a81548173ffffffffffffffffffffffffffffffffffffffff021916908373ffffffffffffffffffffffffffffffffffffffff16021790555080600460006101000a81548173ffffffffffffffffffffffffffffffffffffffff021916908373ffffffffffffffffffffffffffffffffffffffff160217905550505050620005c5565b3373ffffffffffffffffffffffffffffffffffffffff168173ffffffffffffffffffffffffffffffffffffffff16036200031e576040517f08c379a00000000000000000000000000000000000000000000000000000000081526004016200031590620005a3565b60405180910390fd5b80600160006101000a81548173ffffffffffffffffffffffffffffffffffffffff021916908373ffffffffffffffffffffffffffffffffffffffff1602179055508073ffffffffffffffffffffffffffffffffffffffff1660008054906101000a900473ffffffffffffffffffffffffffffffffffffffff1673ffffffffffffffffffffffffffffffffffffffff167fed8889f560326eb138920d842192f0eb3dd22b4f139c87a2c57538e05bae127860405160405180910390a350565b600080fd5b600073ffffffffffffffffffffffffffffffffffffffff82169050919050565b60006200040e82620003e1565b9050919050565b620004208162000401565b81146200042c57600080fd5b50565b600081519050620004408162000415565b92915050565b600080600060608486031215620004625762000461620003dc565b5b600062000472868287016200042f565b935050602062000485868287016200042f565b925050604062000498868287016200042f565b9150509250925092565b600082825260208201905092915050565b7f43616e6e6f7420736574206f776e657220746f207a65726f0000000000000000600082015250565b6000620004eb601883620004a2565b9150620004f882620004b3565b602082019050919050565b600060208201905081810360008301526200051e81620004dc565b9050919050565b620005308162000401565b82525050565b60006020820190506200054d600083018462000525565b92915050565b7f43616e6e6f74207472616e7366657220746f2073656c66000000000000000000600082015250565b60006200058b601783620004a2565b9150620005988262000553565b602082019050919050565b60006020820190508181036000830152620005be816200057c565b9050919050565b608051611d59620005e1600039600061052a0152611d596000f3fe608060405234801561001057600080fd5b50600436106100935760003560e01c80638da5cb5b116100665780638da5cb5b1461011e5780639c046b1b1461013c578063b0f479a11461015a578063b1bafd3814610178578063f2fde38b146101a857610093565b806301ffc9a71461009857806346694b7d146100c857806379ba5097146100f857806385572ffb14610102575b600080fd5b6100b260048036038101906100ad9190610f8b565b6101c4565b6040516100bf9190610fd3565b60405180910390f35b6100e260048036038101906100dd9190611024565b610296565b6040516100ef9190610fd3565b60405180910390f35b6101006102b6565b005b61011c60048036038101906101179190611075565b61044b565b005b6101266104d7565b60405161013391906110ff565b60405180910390f35b610144610500565b6040516101519190611179565b60405180910390f35b610162610526565b60405161016f91906110ff565b60405180910390f35b610192600480360381019061018d9190611200565b61054e565b60405161019f9190611280565b60405180910390f35b6101c260048036038101906101bd919061129b565b6106aa565b005b60007f85572ffb000000000000000000000000000000000000000000000000000000007bffffffffffffffffffffffffffffffffffffffffffffffffffffffff1916827bffffffffffffffffffffffffffffffffffffffffffffffffffffffff1916148061028f57507f01ffc9a7000000000000000000000000000000000000000000000000000000007bffffffffffffffffffffffffffffffffffffffffffffffffffffffff1916827bffffffffffffffffffffffffffffffffffffffffffffffffffffffff1916145b9050919050565b60056020528060005260406000206000915054906101000a900460ff1681565b600160009054906101000a900473ffffffffffffffffffffffffffffffffffffffff1673ffffffffffffffffffffffffffffffffffffffff163373ffffffffffffffffffffffffffffffffffffffff1614610346576040517f08c379a000000000000000000000000000000000000000000000000000000000815260040161033d90611325565b60405180910390fd5b60008060009054906101000a900473ffffffffffffffffffffffffffffffffffffffff169050336000806101000a81548173ffffffffffffffffffffffffffffffffffffffff021916908373ffffffffffffffffffffffffffffffffffffffff1602179055506000600160006101000a81548173ffffffffffffffffffffffffffffffffffffffff021916908373ffffffffffffffffffffffffffffffffffffffff1602179055503373ffffffffffffffffffffffffffffffffffffffff168173ffffffffffffffffffffffffffffffffffffffff167f8be0079c531659141344cd1fd0a4f28419497f9722a3daafe3b4186f6b6457e060405160405180910390a350565b610453610526565b73ffffffffffffffffffffffffffffffffffffffff163373ffffffffffffffffffffffffffffffffffffffff16146104c257336040517fd7f733340000000000000000000000000000000000000000000000000000000081526004016104b991906110ff565b60405180910390fd5b6104d4816104cf906116b9565b6106be565b50565b60008060009054906101000a900473ffffffffffffffffffffffffffffffffffffffff16905090565b600460009054906101000a900473ffffffffffffffffffffffffffffffffffffffff1681565b60007f0000000000000000000000000000000000000000000000000000000000000000905090565b6000600460009054906101000a900473ffffffffffffffffffffffffffffffffffffffff1673ffffffffffffffffffffffffffffffffffffffff166323b872dd3330886040518463ffffffff1660e01b81526004016105af939291906116db565b600060405180830381600087803b1580156105c957600080fd5b505af11580156105dd573d6000803e3d6000fd5b50505050600460009054906101000a900473ffffffffffffffffffffffffffffffffffffffff1673ffffffffffffffffffffffffffffffffffffffff166342966c68866040518263ffffffff1660e01b815260040161063c9190611712565b600060405180830381600087803b15801561065657600080fd5b505af115801561066a573d6000803e3d6000fd5b505050506000858560405160200161068392919061172d565b604051602081830303815290604052905061069f8484836107ba565b915050949350505050565b6106b2610cb4565b6106bb81610d44565b50565b600081606001518060200190518101906106d891906117d0565b9050600081600001519050600082602001519050600460009054906101000a900473ffffffffffffffffffffffffffffffffffffffff1673ffffffffffffffffffffffffffffffffffffffff1663a65cd1d082846040518363ffffffff1660e01b81526004016107499291906117fd565b600060405180830381600087803b15801561076357600080fd5b505af1158015610777573d6000803e3d6000fd5b505050507f3a5398bda6f1f57d6c96834fa9bf02b5517bdc847d14312015a917ba421c31c982826040516107ac92919061172d565b60405180910390a150505050565b60006107c4610cb4565b60006040518060a00160405280856040516020016107e291906110ff565b6040516020818303038152906040528152602001848152602001600067ffffffffffffffff8111156108175761081661135b565b5b60405190808252806020026020018201604052801561085057816020015b61083d610eef565b8152602001906001900390816108355790505b508152602001600360009054906101000a900473ffffffffffffffffffffffffffffffffffffffff1673ffffffffffffffffffffffffffffffffffffffff1681526020016108b7604051806040016040528062030d40815260200160011515815250610e70565b81525090506000600260009054906101000a900473ffffffffffffffffffffffffffffffffffffffff1673ffffffffffffffffffffffffffffffffffffffff166320487ded87846040518363ffffffff1660e01b815260040161091b929190611a3b565b602060405180830381865afa158015610938573d6000803e3d6000fd5b505050506040513d601f19601f8201168201806040525081019061095c9190611a6b565b9050600360009054906101000a900473ffffffffffffffffffffffffffffffffffffffff1673ffffffffffffffffffffffffffffffffffffffff166370a08231306040518263ffffffff1660e01b81526004016109b991906110ff565b602060405180830381865afa1580156109d6573d6000803e3d6000fd5b505050506040513d601f19601f820116820180604052508101906109fa9190611a6b565b811115610adb57600360009054906101000a900473ffffffffffffffffffffffffffffffffffffffff1673ffffffffffffffffffffffffffffffffffffffff166370a08231306040518263ffffffff1660e01b8152600401610a5c91906110ff565b602060405180830381865afa158015610a79573d6000803e3d6000fd5b505050506040513d601f19601f82011682018060405250810190610a9d9190611a6b565b816040517f8f0f4206000000000000000000000000000000000000000000000000000000008152600401610ad2929190611a98565b60405180910390fd5b600360009054906101000a900473ffffffffffffffffffffffffffffffffffffffff1673ffffffffffffffffffffffffffffffffffffffff1663095ea7b3600260009054906101000a900473ffffffffffffffffffffffffffffffffffffffff16836040518363ffffffff1660e01b8152600401610b5a9291906117fd565b6020604051808303816000875af1158015610b79573d6000803e3d6000fd5b505050506040513d601f19601f82011682018060405250810190610b9d9190611aed565b50600260009054906101000a900473ffffffffffffffffffffffffffffffffffffffff1673ffffffffffffffffffffffffffffffffffffffff166396f4e9f987846040518363ffffffff1660e01b8152600401610bfb929190611a3b565b6020604051808303816000875af1158015610c1a573d6000803e3d6000fd5b505050506040513d601f19601f82011682018060405250810190610c3e9190611b2f565b92508567ffffffffffffffff16837f3d8a9f055772202d2c3c1fddbad930d3dbe588d8692b75b84cee0719462829118787600360009054906101000a900473ffffffffffffffffffffffffffffffffffffffff1686604051610ca39493929190611ba6565b60405180910390a350509392505050565b60008054906101000a900473ffffffffffffffffffffffffffffffffffffffff1673ffffffffffffffffffffffffffffffffffffffff163373ffffffffffffffffffffffffffffffffffffffff1614610d42576040517f08c379a0000000000000000000000000000000000000000000000000000000008152600401610d3990611c3e565b60405180910390fd5b565b3373ffffffffffffffffffffffffffffffffffffffff168173ffffffffffffffffffffffffffffffffffffffff1603610db2576040517f08c379a0000000000000000000000000000000000000000000000000000000008152600401610da990611caa565b60405180910390fd5b80600160006101000a81548173ffffffffffffffffffffffffffffffffffffffff021916908373ffffffffffffffffffffffffffffffffffffffff1602179055508073ffffffffffffffffffffffffffffffffffffffff1660008054906101000a900473ffffffffffffffffffffffffffffffffffffffff1673ffffffffffffffffffffffffffffffffffffffff167fed8889f560326eb138920d842192f0eb3dd22b4f139c87a2c57538e05bae127860405160405180910390a350565b606063181dcf1060e01b82604051602401610e8b9190611d08565b604051602081830303815290604052907bffffffffffffffffffffffffffffffffffffffffffffffffffffffff19166020820180517bffffffffffffffffffffffffffffffffffffffffffffffffffffffff83818316178352505050509050919050565b6040518060400160405280600073ffffffffffffffffffffffffffffffffffffffff168152602001600081525090565b6000604051905090565b600080fd5b600080fd5b60007fffffffff0000000000000000000000000000000000000000000000000000000082169050919050565b610f6881610f33565b8114610f7357600080fd5b50565b600081359050610f8581610f5f565b92915050565b600060208284031215610fa157610fa0610f29565b5b6000610faf84828501610f76565b91505092915050565b60008115159050919050565b610fcd81610fb8565b82525050565b6000602082019050610fe86000830184610fc4565b92915050565b6000819050919050565b61100181610fee565b811461100c57600080fd5b50565b60008135905061101e81610ff8565b92915050565b60006020828403121561103a57611039610f29565b5b60006110488482850161100f565b91505092915050565b600080fd5b600060a0828403121561106c5761106b611051565b5b81905092915050565b60006020828403121561108b5761108a610f29565b5b600082013567ffffffffffffffff8111156110a9576110a8610f2e565b5b6110b584828501611056565b91505092915050565b600073ffffffffffffffffffffffffffffffffffffffff82169050919050565b60006110e9826110be565b9050919050565b6110f9816110de565b82525050565b600060208201905061111460008301846110f0565b92915050565b6000819050919050565b600061113f61113a611135846110be565b61111a565b6110be565b9050919050565b600061115182611124565b9050919050565b600061116382611146565b9050919050565b61117381611158565b82525050565b600060208201905061118e600083018461116a565b92915050565b61119d816110de565b81146111a857600080fd5b50565b6000813590506111ba81611194565b92915050565b600067ffffffffffffffff82169050919050565b6111dd816111c0565b81146111e857600080fd5b50565b6000813590506111fa816111d4565b92915050565b6000806000806080858703121561121a57611219610f29565b5b60006112288782880161100f565b9450506020611239878288016111ab565b935050604061124a878288016111eb565b925050606061125b878288016111ab565b91505092959194509250565b6000819050919050565b61127a81611267565b82525050565b60006020820190506112956000830184611271565b92915050565b6000602082840312156112b1576112b0610f29565b5b60006112bf848285016111ab565b91505092915050565b600082825260208201905092915050565b7f4d7573742062652070726f706f736564206f776e657200000000000000000000600082015250565b600061130f6016836112c8565b915061131a826112d9565b602082019050919050565b6000602082019050818103600083015261133e81611302565b9050919050565b600080fd5b6000601f19601f8301169050919050565b7f4e487b7100000000000000000000000000000000000000000000000000000000600052604160045260246000fd5b6113938261134a565b810181811067ffffffffffffffff821117156113b2576113b161135b565b5b80604052505050565b60006113c5610f1f565b90506113d1828261138a565b919050565b600080fd5b6113e481611267565b81146113ef57600080fd5b50565b600081359050611401816113db565b92915050565b600080fd5b600080fd5b600067ffffffffffffffff82111561142c5761142b61135b565b5b6114358261134a565b9050602081019050919050565b82818337600083830152505050565b600061146461145f84611411565b6113bb565b9050828152602081018484840111156114805761147f61140c565b5b61148b848285611442565b509392505050565b600082601f8301126114a8576114a7611407565b5b81356114b8848260208601611451565b91505092915050565b600067ffffffffffffffff8211156114dc576114db61135b565b5b602082029050602081019050919050565b600080fd5b60006040828403121561150857611507611345565b5b61151260406113bb565b90506000611522848285016111ab565b60008301525060206115368482850161100f565b60208301525092915050565b6000611555611550846114c1565b6113bb565b90508083825260208201905060408402830185811115611578576115776114ed565b5b835b818110156115a1578061158d88826114f2565b84526020840193505060408101905061157a565b5050509392505050565b600082601f8301126115c0576115bf611407565b5b81356115d0848260208601611542565b91505092915050565b600060a082840312156115ef576115ee611345565b5b6115f960a06113bb565b90506000611609848285016113f2565b600083015250602061161d848285016111eb565b602083015250604082013567ffffffffffffffff811115611641576116406113d6565b5b61164d84828501611493565b604083015250606082013567ffffffffffffffff811115611671576116706113d6565b5b61167d84828501611493565b606083015250608082013567ffffffffffffffff8111156116a1576116a06113d6565b5b6116ad848285016115ab565b60808301525092915050565b60006116c536836115d9565b9050919050565b6116d581610fee565b82525050565b60006060820190506116f060008301866110f0565b6116fd60208301856110f0565b61170a60408301846116cc565b949350505050565b600060208201905061172760008301846116cc565b92915050565b600060408201905061174260008301856116cc565b61174f60208301846110f0565b9392505050565b60008151905061176581610ff8565b92915050565b60008151905061177a81611194565b92915050565b60006040828403121561179657611795611345565b5b6117a060406113bb565b905060006117b084828501611756565b60008301525060206117c48482850161176b565b60208301525092915050565b6000604082840312156117e6576117e5610f29565b5b60006117f484828501611780565b91505092915050565b600060408201905061181260008301856110f0565b61181f60208301846116cc565b9392505050565b61182f816111c0565b82525050565b600081519050919050565b600082825260208201905092915050565b60005b8381101561186f578082015181840152602081019050611854565b60008484015250505050565b600061188682611835565b6118908185611840565b93506118a0818560208601611851565b6118a98161134a565b840191505092915050565b600081519050919050565b600082825260208201905092915050565b6000819050602082019050919050565b6118e9816110de565b82525050565b6118f881610fee565b82525050565b60408201600082015161191460008501826118e0565b50602082015161192760208501826118ef565b50505050565b600061193983836118fe565b60408301905092915050565b6000602082019050919050565b600061195d826118b4565b61196781856118bf565b9350611972836118d0565b8060005b838110156119a357815161198a888261192d565b975061199583611945565b925050600181019050611976565b5085935050505092915050565b600060a08301600083015184820360008601526119cd828261187b565b915050602083015184820360208601526119e7828261187b565b91505060408301518482036040860152611a018282611952565b9150506060830151611a1660608601826118e0565b5060808301518482036080860152611a2e828261187b565b9150508091505092915050565b6000604082019050611a506000830185611826565b8181036020830152611a6281846119b0565b90509392505050565b600060208284031215611a8157611a80610f29565b5b6000611a8f84828501611756565b91505092915050565b6000604082019050611aad60008301856116cc565b611aba60208301846116cc565b9392505050565b611aca81610fb8565b8114611ad557600080fd5b50565b600081519050611ae781611ac1565b92915050565b600060208284031215611b0357611b02610f29565b5b6000611b1184828501611ad8565b91505092915050565b600081519050611b29816113db565b92915050565b600060208284031215611b4557611b44610f29565b5b6000611b5384828501611b1a565b91505092915050565b600082825260208201905092915050565b6000611b7882611835565b611b828185611b5c565b9350611b92818560208601611851565b611b9b8161134a565b840191505092915050565b6000608082019050611bbb60008301876110f0565b8181036020830152611bcd8186611b6d565b9050611bdc60408301856110f0565b611be960608301846116cc565b95945050505050565b7f4f6e6c792063616c6c61626c65206279206f776e657200000000000000000000600082015250565b6000611c286016836112c8565b9150611c3382611bf2565b602082019050919050565b60006020820190508181036000830152611c5781611c1b565b9050919050565b7f43616e6e6f74207472616e7366657220746f2073656c66000000000000000000600082015250565b6000611c946017836112c8565b9150611c9f82611c5e565b602082019050919050565b60006020820190508181036000830152611cc381611c87565b9050919050565b611cd381610fb8565b82525050565b604082016000820151611cef60008501826118ef565b506020820151611d026020850182611cca565b50505050565b6000604082019050611d1d6000830184611cd9565b9291505056fea2646970667358221220f9eabe90f87830be6249a8234326f914cf4848f1fc6be19b14ac52b1ce1a856b64736f6c63430008180033",
  "devdoc": {
    "kind": "dev",
    "methods": {
      "ccipReceive((bytes32,uint64,bytes,bytes,(address,uint256)[]))": {
        "details": "Note ensure you check the msg.sender is the OffRampRouter.",
        "params": {
          "message": "CCIP Message."
        }
      },
      "constructor": {
        "params": {
          "_link": "The address of the link contract.",
          "_router": "The address of the router contract."
        }
      },
      "getRouter()": {
        "returns": {
          "_0": "CCIP router address"
        }
      },
      "supportsInterface(bytes4)": {
        "details": "Should indicate whether the contract implements IAny2EVMMessageReceiver. e.g. return interfaceId == type(IAny2EVMMessageReceiver).interfaceId || interfaceId == type(IERC165).interfaceId This allows CCIP to check if ccipReceive is available before calling it. - If this returns false or reverts, only tokens are transferred to the receiver. - If this returns true, tokens are transferred and ccipReceive is called atomically. Additionally, if the receiver address does not have code associated with it at the time of execution (EXTCODESIZE returns 0), only tokens will be transferred.",
        "params": {
          "interfaceId": "The interfaceId to check."
        },
        "returns": {
          "_0": "true if the interfaceId is supported."
        }
      }
    },
    "title": "- A simple contract for sending string data across chains.",
    "version": 1
  },
  "userdoc": {
    "kind": "user",
    "methods": {
      "acceptOwnership()": {
        "notice": "Allows an ownership transfer to be completed by the recipient."
      },
      "ccipReceive((bytes32,uint64,bytes,bytes,(address,uint256)[]))": {
        "notice": "Called by the Router to deliver a message. If this reverts, any token transfers also revert. The message will move to a FAILED state and become available for manual execution."
      },
      "constructor": {
        "notice": "Constructor initializes the contract with the router address."
      },
      "getRouter()": {
        "notice": "Return the current router"
      },
      "owner()": {
        "notice": "Get the current owner"
      },
      "supportsInterface(bytes4)": {
        "notice": "IERC165 supports an interfaceId."
      },
      "transferOwnership(address)": {
        "notice": "Allows an owner to begin transferring ownership to a new address."
      }
    },
    "version": 1
  },
  "storageLayout": {
    "storage": [
      {
        "astId": 352,
        "contract": "contracts/NFTPoolMintAndBurn.sol:NFTPoolMintAndBurn",
        "label": "s_owner",
        "offset": 0,
        "slot": "0",
        "type": "t_address"
      },
      {
        "astId": 354,
        "contract": "contracts/NFTPoolMintAndBurn.sol:NFTPoolMintAndBurn",
        "label": "s_pendingOwner",
        "offset": 0,
        "slot": "1",
        "type": "t_address"
      },
      {
        "astId": 8234,
        "contract": "contracts/NFTPoolMintAndBurn.sol:NFTPoolMintAndBurn",
        "label": "s_router",
        "offset": 0,
        "slot": "2",
        "type": "t_contract(IRouterClient)173"
      },
      {
        "astId": 8237,
        "contract": "contracts/NFTPoolMintAndBurn.sol:NFTPoolMintAndBurn",
        "label": "s_linkToken",
        "offset": 0,
        "slot": "3",
        "type": "t_contract(LinkTokenInterface)633"
      },
      {
        "astId": 8240,
        "contract": "contracts/NFTPoolMintAndBurn.sol:NFTPoolMintAndBurn",
        "label": "wnft",
        "offset": 0,
        "slot": "4",
        "type": "t_contract(WrappedMyToken)8664"
      },
      {
        "astId": 8244,
        "contract": "contracts/NFTPoolMintAndBurn.sol:NFTPoolMintAndBurn",
        "label": "tokenLocked",
        "offset": 0,
        "slot": "5",
        "type": "t_mapping(t_uint256,t_bool)"
      }
    ],
    "types": {
      "t_address": {
        "encoding": "inplace",
        "label": "address",
        "numberOfBytes": "20"
      },
      "t_bool": {
        "encoding": "inplace",
        "label": "bool",
        "numberOfBytes": "1"
      },
      "t_contract(IRouterClient)173": {
        "encoding": "inplace",
        "label": "contract IRouterClient",
        "numberOfBytes": "20"
      },
      "t_contract(LinkTokenInterface)633": {
        "encoding": "inplace",
        "label": "contract LinkTokenInterface",
        "numberOfBytes": "20"
      },
      "t_contract(WrappedMyToken)8664": {
        "encoding": "inplace",
        "label": "contract WrappedMyToken",
        "numberOfBytes": "20"
      },
      "t_mapping(t_uint256,t_bool)": {
        "encoding": "mapping",
        "key": "t_uint256",
        "label": "mapping(uint256 => bool)",
        "numberOfBytes": "32",
        "value": "t_bool"
      },
      "t_uint256": {
        "encoding": "inplace",
        "label": "uint256",
        "numberOfBytes": "32"
      }
    }
  }
}